{
  "contractName": "Escrow",
  "abi": [
    {
      "inputs": [],
      "stateMutability": "nonpayable",
      "type": "constructor"
    },
    {
      "anonymous": false,
      "inputs": [
        {
          "indexed": false,
          "internalType": "string",
          "name": "notification",
          "type": "string"
        }
      ],
      "name": "notify",
      "type": "event"
    },
    {
      "stateMutability": "payable",
      "type": "fallback",
      "payable": true
    },
    {
      "inputs": [],
      "name": "balance",
      "outputs": [
        {
          "internalType": "uint256",
          "name": "",
          "type": "uint256"
        }
      ],
      "stateMutability": "view",
      "type": "function",
      "constant": true
    },
    {
      "inputs": [
        {
          "internalType": "uint256",
          "name": "",
          "type": "uint256"
        }
      ],
      "name": "buyerOK",
      "outputs": [
        {
          "internalType": "bool",
          "name": "",
          "type": "bool"
        }
      ],
      "stateMutability": "view",
      "type": "function",
      "constant": true
    },
    {
      "inputs": [
        {
          "internalType": "uint256",
          "name": "",
          "type": "uint256"
        }
      ],
      "name": "buyers",
      "outputs": [
        {
          "internalType": "address",
          "name": "",
          "type": "address"
        }
      ],
      "stateMutability": "view",
      "type": "function",
      "constant": true
    },
    {
      "inputs": [
        {
          "internalType": "uint256",
          "name": "",
          "type": "uint256"
        }
      ],
      "name": "items",
      "outputs": [
        {
          "internalType": "string",
          "name": "",
          "type": "string"
        }
      ],
      "stateMutability": "view",
      "type": "function",
      "constant": true
    },
    {
      "inputs": [
        {
          "internalType": "uint256",
          "name": "",
          "type": "uint256"
        }
      ],
      "name": "itemsprices",
      "outputs": [
        {
          "internalType": "uint256",
          "name": "",
          "type": "uint256"
        }
      ],
      "stateMutability": "view",
      "type": "function",
      "constant": true
    },
    {
      "inputs": [],
      "name": "n_escrows",
      "outputs": [
        {
          "internalType": "uint256",
          "name": "",
          "type": "uint256"
        }
      ],
      "stateMutability": "view",
      "type": "function",
      "constant": true
    },
    {
      "inputs": [
        {
          "internalType": "uint256",
          "name": "",
          "type": "uint256"
        }
      ],
      "name": "sellerOK",
      "outputs": [
        {
          "internalType": "bool",
          "name": "",
          "type": "bool"
        }
      ],
      "stateMutability": "view",
      "type": "function",
      "constant": true
    },
    {
      "inputs": [
        {
          "internalType": "uint256",
          "name": "",
          "type": "uint256"
        }
      ],
      "name": "sellers",
      "outputs": [
        {
          "internalType": "address",
          "name": "",
          "type": "address"
        }
      ],
      "stateMutability": "view",
      "type": "function",
      "constant": true
    },
    {
      "inputs": [
        {
          "internalType": "uint256",
          "name": "",
          "type": "uint256"
        }
      ],
      "name": "states",
      "outputs": [
        {
          "internalType": "enum Escrow.state",
          "name": "",
          "type": "uint8"
        }
      ],
      "stateMutability": "view",
      "type": "function",
      "constant": true
    },
    {
      "inputs": [
        {
          "internalType": "address payable",
          "name": "_seller",
          "type": "address"
        },
        {
          "internalType": "string",
          "name": "name",
          "type": "string"
        },
        {
          "internalType": "uint256",
          "name": "price",
          "type": "uint256"
        }
      ],
      "name": "init_escrow",
      "outputs": [],
      "stateMutability": "nonpayable",
      "type": "function"
    },
    {
      "inputs": [
        {
          "internalType": "address",
          "name": "_sender",
          "type": "address"
        }
      ],
      "name": "isBuyer",
      "outputs": [
        {
          "internalType": "int256",
          "name": "",
          "type": "int256"
        }
      ],
      "stateMutability": "view",
      "type": "function",
      "constant": true
    },
    {
      "inputs": [
        {
          "internalType": "address",
          "name": "_sender",
          "type": "address"
        }
      ],
      "name": "isSeller",
      "outputs": [
        {
          "internalType": "int256",
          "name": "",
          "type": "int256"
        }
      ],
      "stateMutability": "view",
      "type": "function",
      "constant": true
    },
    {
      "inputs": [],
      "name": "seller_deny_service",
      "outputs": [],
      "stateMutability": "nonpayable",
      "type": "function"
    },
    {
      "inputs": [],
      "name": "seller_send_product",
      "outputs": [],
      "stateMutability": "nonpayable",
      "type": "function"
    },
    {
      "inputs": [],
      "name": "b_delivery_received",
      "outputs": [],
      "stateMutability": "nonpayable",
      "type": "function"
    }
  ],
  "bytecode": "0x608060405234801561001057600080fd5b506000600281905550600060038190555061256a806100306000396000f3fe6080604052600436106100eb5760003560e01c80637d789a1e1161008a578063cee26ed511610059578063cee26ed5146104e6578063ee95feaf14610523578063f2aa821814610560578063fbc41a571461059d576100ec565b80637d789a1e1461042a578063b69ef8a814610455578063bfb231d214610480578063cb6eb3fe146104bd576100ec565b806322fb0246116100c657806322fb02461461035c5780632a55feec146103735780635eae280c146103b057806374cc314c146103ed576100ec565b80626a01ac146102f1578063017a9105146103085780631d762b2414610345576100ec565b5b60006100f7336105da565b90507fffffffffffffffffffffffffffffffffffffffffffffffffffffffffffffffff81141561015c576040517f08c379a0000000000000000000000000000000000000000000000000000000008152600401610153906115c2565b60405180910390fd5b600060028111156101705761016f6115e2565b5b6004828154811061018457610183611611565b5b90600052602060002090602091828204019190069054906101000a900460ff1660028111156101b6576101b56115e2565b5b146101f6576040517f08c379a00000000000000000000000000000000000000000000000000000000081526004016101ed9061168c565b60405180910390fd5b6008818154811061020a57610209611611565b5b90600052602060002001543414610256576040517f08c379a000000000000000000000000000000000000000000000000000000000815260040161024d9061171e565b60405180910390fd5b346003546102649190611777565b6003819055506001600482815481106102805761027f611611565b5b90600052602060002090602091828204019190066101000a81548160ff021916908360028111156102b4576102b36115e2565b5b02179055507fa396f8d98c67c164560cb969bf42c7fd20318f6a13d8a83e7a589a61fb1214b66040516102e69061183f565b60405180910390a150005b3480156102fd57600080fd5b5061030661070a565b005b34801561031457600080fd5b5061032f600480360381019061032a919061189f565b6109d5565b60405161033c9190611914565b60405180910390f35b34801561035157600080fd5b5061035a610a09565b005b34801561036857600080fd5b50610371610b8a565b005b34801561037f57600080fd5b5061039a6004803603810190610395919061198d565b6105da565b6040516103a791906119d3565b60405180910390f35b3480156103bc57600080fd5b506103d760048036038101906103d2919061189f565b610f47565b6040516103e49190611a09565b60405180910390f35b3480156103f957600080fd5b50610414600480360381019061040f919061189f565b610f7b565b6040516104219190611a09565b60405180910390f35b34801561043657600080fd5b5061043f610faf565b60405161044c9190611a33565b60405180910390f35b34801561046157600080fd5b5061046a610fb5565b6040516104779190611a33565b60405180910390f35b34801561048c57600080fd5b506104a760048036038101906104a2919061189f565b610fbb565b6040516104b49190611ad6565b60405180910390f35b3480156104c957600080fd5b506104e460048036038101906104df9190611c6b565b611067565b005b3480156104f257600080fd5b5061050d6004803603810190610508919061189f565b6112ca565b60405161051a9190611ce9565b60405180910390f35b34801561052f57600080fd5b5061054a6004803603810190610545919061198d565b611309565b60405161055791906119d3565b60405180910390f35b34801561056c57600080fd5b506105876004803603810190610582919061189f565b611439565b6040516105949190611ce9565b60405180910390f35b3480156105a957600080fd5b506105c460048036038101906105bf919061189f565b611478565b6040516105d19190611a33565b60405180910390f35b600080600090505b6000805490508110156106e0578273ffffffffffffffffffffffffffffffffffffffff166000828154811061061a57610619611611565b5b9060005260206000200160009054906101000a900473ffffffffffffffffffffffffffffffffffffffff1673ffffffffffffffffffffffffffffffffffffffff161480156106bf5750600280811115610676576106756115e2565b5b6004828154811061068a57610689611611565b5b90600052602060002090602091828204019190069054906101000a900460ff1660028111156106bc576106bb6115e2565b5b14155b156106cd5780915050610705565b80806106d890611d04565b9150506105e2565b507fffffffffffffffffffffffffffffffffffffffffffffffffffffffffffffffff90505b919050565b600061071533611309565b90507fffffffffffffffffffffffffffffffffffffffffffffffffffffffffffffffff81141561077a576040517f08c379a000000000000000000000000000000000000000000000000000000000815260040161077190611dbf565b60405180910390fd5b6001600281111561078e5761078d6115e2565b5b600482815481106107a2576107a1611611565b5b90600052602060002090602091828204019190069054906101000a900460ff1660028111156107d4576107d36115e2565b5b14610814576040517f08c379a000000000000000000000000000000000000000000000000000000000815260040161080b90611e2b565b60405180910390fd5b600080828154811061082957610828611611565b5b9060005260206000200160009054906101000a900473ffffffffffffffffffffffffffffffffffffffff1673ffffffffffffffffffffffffffffffffffffffff166008838154811061087e5761087d611611565b5b906000526020600020015460405161089590611e7c565b60006040518083038185875af1925050503d80600081146108d2576040519150601f19603f3d011682016040523d82523d6000602084013e6108d7565b606091505b505090508061091b576040517f08c379a000000000000000000000000000000000000000000000000000000000815260040161091290611edd565b60405180910390fd5b6008828154811061092f5761092e611611565b5b90600052602060002001546003546109479190611efd565b60038190555060026004838154811061096357610962611611565b5b90600052602060002090602091828204019190066101000a81548160ff02191690836002811115610997576109966115e2565b5b02179055507fa396f8d98c67c164560cb969bf42c7fd20318f6a13d8a83e7a589a61fb1214b66040516109c990611fc9565b60405180910390a15050565b600481815481106109e557600080fd5b9060005260206000209060209182820401919006915054906101000a900460ff1681565b6000610a1433611309565b90507fffffffffffffffffffffffffffffffffffffffffffffffffffffffffffffffff811415610a79576040517f08c379a0000000000000000000000000000000000000000000000000000000008152600401610a709061205b565b60405180910390fd5b60016002811115610a8d57610a8c6115e2565b5b60048281548110610aa157610aa0611611565b5b90600052602060002090602091828204019190069054906101000a900460ff166002811115610ad357610ad26115e2565b5b14610b13576040517f08c379a0000000000000000000000000000000000000000000000000000000008152600401610b0a906120ed565b60405180910390fd5b600160068281548110610b2957610b28611611565b5b90600052602060002090602091828204019190066101000a81548160ff0219169083151502179055507fa396f8d98c67c164560cb969bf42c7fd20318f6a13d8a83e7a589a61fb1214b6604051610b7f9061217f565b60405180910390a150565b6000610b95336105da565b90507fffffffffffffffffffffffffffffffffffffffffffffffffffffffffffffffff811415610bfa576040517f08c379a0000000000000000000000000000000000000000000000000000000008152600401610bf190612211565b60405180910390fd5b60016002811115610c0e57610c0d6115e2565b5b60048281548110610c2257610c21611611565b5b90600052602060002090602091828204019190069054906101000a900460ff166002811115610c5457610c536115e2565b5b148015610c91575060068181548110610c7057610c6f611611565b5b90600052602060002090602091828204019190069054906101000a900460ff165b610cd0576040517f08c379a0000000000000000000000000000000000000000000000000000000008152600401610cc7906122a3565b60405180910390fd5b600160058281548110610ce657610ce5611611565b5b90600052602060002090602091828204019190066101000a81548160ff02191690831515021790555060058181548110610d2357610d22611611565b5b90600052602060002090602091828204019190069054906101000a900460ff168015610d7f575060068181548110610d5e57610d5d611611565b5b90600052602060002090602091828204019190069054906101000a900460ff165b15610f4457600060018281548110610d9a57610d99611611565b5b9060005260206000200160009054906101000a900473ffffffffffffffffffffffffffffffffffffffff1673ffffffffffffffffffffffffffffffffffffffff1660088381548110610def57610dee611611565b5b9060005260206000200154604051610e0690611e7c565b60006040518083038185875af1925050503d8060008114610e43576040519150601f19603f3d011682016040523d82523d6000602084013e610e48565b606091505b5050905080610e8c576040517f08c379a0000000000000000000000000000000000000000000000000000000008152600401610e839061230f565b60405180910390fd5b60088281548110610ea057610e9f611611565b5b9060005260206000200154600354610eb89190611efd565b600381905550600260048381548110610ed457610ed3611611565b5b90600052602060002090602091828204019190066101000a81548160ff02191690836002811115610f0857610f076115e2565b5b02179055507fa396f8d98c67c164560cb969bf42c7fd20318f6a13d8a83e7a589a61fb1214b6604051610f3a906123c7565b60405180910390a1505b50565b60068181548110610f5757600080fd5b9060005260206000209060209182820401919006915054906101000a900460ff1681565b60058181548110610f8b57600080fd5b9060005260206000209060209182820401919006915054906101000a900460ff1681565b60025481565b60035481565b60078181548110610fcb57600080fd5b906000526020600020016000915090508054610fe690612416565b80601f016020809104026020016040519081016040528092919081815260200182805461101290612416565b801561105f5780601f106110345761010080835404028352916020019161105f565b820191906000526020600020905b81548152906001019060200180831161104257829003601f168201915b505050505081565b6000339080600181540180825580915050600190039060005260206000200160009091909190916101000a81548173ffffffffffffffffffffffffffffffffffffffff021916908373ffffffffffffffffffffffffffffffffffffffff1602179055506001839080600181540180825580915050600190039060005260206000200160009091909190916101000a81548173ffffffffffffffffffffffffffffffffffffffff021916908373ffffffffffffffffffffffffffffffffffffffff1602179055506005600090806001815401808255809150506001900390600052602060002090602091828204019190069091909190916101000a81548160ff0219169083151502179055506006600090806001815401808255809150506001900390600052602060002090602091828204019190069091909190916101000a81548160ff0219169083151502179055506000805490506002819055506007829080600181540180825580915050600190039060005260206000200160009091909190915090805190602001906111fe92919061149c565b506008670de0b6b3a7640000826112159190612448565b90806001815401808255809150506001900390600052602060002001600090919091909150556004600090806001815401808255809150506001900390600052602060002090602091828204019190069091909190916101000a81548160ff0219169083600281111561128b5761128a6115e2565b5b02179055507fa396f8d98c67c164560cb969bf42c7fd20318f6a13d8a83e7a589a61fb1214b66040516112bd90612514565b60405180910390a1505050565b600181815481106112da57600080fd5b906000526020600020016000915054906101000a900473ffffffffffffffffffffffffffffffffffffffff1681565b600080600090505b60018054905081101561140f578273ffffffffffffffffffffffffffffffffffffffff166001828154811061134957611348611611565b5b9060005260206000200160009054906101000a900473ffffffffffffffffffffffffffffffffffffffff1673ffffffffffffffffffffffffffffffffffffffff161480156113ee57506002808111156113a5576113a46115e2565b5b600482815481106113b9576113b8611611565b5b90600052602060002090602091828204019190069054906101000a900460ff1660028111156113eb576113ea6115e2565b5b14155b156113fc5780915050611434565b808061140790611d04565b915050611311565b507fffffffffffffffffffffffffffffffffffffffffffffffffffffffffffffffff90505b919050565b6000818154811061144957600080fd5b906000526020600020016000915054906101000a900473ffffffffffffffffffffffffffffffffffffffff1681565b6008818154811061148857600080fd5b906000526020600020016000915090505481565b8280546114a890612416565b90600052602060002090601f0160209004810192826114ca5760008555611511565b82601f106114e357805160ff1916838001178555611511565b82800160010185558215611511579182015b828111156115105782518255916020019190600101906114f5565b5b50905061151e9190611522565b5090565b5b8082111561153b576000816000905550600101611523565b5090565b600082825260208201905092915050565b7f43616e206f6e6c7920626520616363657373656420627920746865206275796560008201527f722e000000000000000000000000000000000000000000000000000000000000602082015250565b60006115ac60228361153f565b91506115b782611550565b604082019050919050565b600060208201905081810360008301526115db8161159f565b9050919050565b7f4e487b7100000000000000000000000000000000000000000000000000000000600052602160045260246000fd5b7f4e487b7100000000000000000000000000000000000000000000000000000000600052603260045260246000fd5b7f5061796d656e742068617320616c7265616479206265656e206d6164652e0000600082015250565b6000611676601e8361153f565b915061168182611640565b602082019050919050565b600060208201905081810360008301526116a581611669565b9050919050565b7f456e746572656420616d6f756e74206973206e6f74207468652072657175697260008201527f656420616d6f756e742e00000000000000000000000000000000000000000000602082015250565b6000611708602a8361153f565b9150611713826116ac565b604082019050919050565b60006020820190508181036000830152611737816116fb565b9050919050565b6000819050919050565b7f4e487b7100000000000000000000000000000000000000000000000000000000600052601160045260246000fd5b60006117828261173e565b915061178d8361173e565b9250827fffffffffffffffffffffffffffffffffffffffffffffffffffffffffffffffff038211156117c2576117c1611748565b5b828201905092915050565b7f427579657220686173206465706f73697465642074686520726571756972656460008201527f20616d6f756e7420696e2074686520457363726f77206163636f756e742e0000602082015250565b6000611829603e8361153f565b9150611834826117cd565b604082019050919050565b600060208201905081810360008301526118588161181c565b9050919050565b6000604051905090565b600080fd5b600080fd5b61187c8161173e565b811461188757600080fd5b50565b60008135905061189981611873565b92915050565b6000602082840312156118b5576118b4611869565b5b60006118c38482850161188a565b91505092915050565b600381106118dd576118dc6115e2565b5b50565b60008190506118ee826118cc565b919050565b60006118fe826118e0565b9050919050565b61190e816118f3565b82525050565b60006020820190506119296000830184611905565b92915050565b600073ffffffffffffffffffffffffffffffffffffffff82169050919050565b600061195a8261192f565b9050919050565b61196a8161194f565b811461197557600080fd5b50565b60008135905061198781611961565b92915050565b6000602082840312156119a3576119a2611869565b5b60006119b184828501611978565b91505092915050565b6000819050919050565b6119cd816119ba565b82525050565b60006020820190506119e860008301846119c4565b92915050565b60008115159050919050565b611a03816119ee565b82525050565b6000602082019050611a1e60008301846119fa565b92915050565b611a2d8161173e565b82525050565b6000602082019050611a486000830184611a24565b92915050565b600081519050919050565b60005b83811015611a77578082015181840152602081019050611a5c565b83811115611a86576000848401525b50505050565b6000601f19601f8301169050919050565b6000611aa882611a4e565b611ab2818561153f565b9350611ac2818560208601611a59565b611acb81611a8c565b840191505092915050565b60006020820190508181036000830152611af08184611a9d565b905092915050565b6000611b038261192f565b9050919050565b611b1381611af8565b8114611b1e57600080fd5b50565b600081359050611b3081611b0a565b92915050565b600080fd5b600080fd5b7f4e487b7100000000000000000000000000000000000000000000000000000000600052604160045260246000fd5b611b7882611a8c565b810181811067ffffffffffffffff82111715611b9757611b96611b40565b5b80604052505050565b6000611baa61185f565b9050611bb68282611b6f565b919050565b600067ffffffffffffffff821115611bd657611bd5611b40565b5b611bdf82611a8c565b9050602081019050919050565b82818337600083830152505050565b6000611c0e611c0984611bbb565b611ba0565b905082815260208101848484011115611c2a57611c29611b3b565b5b611c35848285611bec565b509392505050565b600082601f830112611c5257611c51611b36565b5b8135611c62848260208601611bfb565b91505092915050565b600080600060608486031215611c8457611c83611869565b5b6000611c9286828701611b21565b935050602084013567ffffffffffffffff811115611cb357611cb261186e565b5b611cbf86828701611c3d565b9250506040611cd08682870161188a565b9150509250925092565b611ce38161194f565b82525050565b6000602082019050611cfe6000830184611cda565b92915050565b6000611d0f8261173e565b91507fffffffffffffffffffffffffffffffffffffffffffffffffffffffffffffffff821415611d4257611d41611748565b5b600182019050919050565b7f43616e206f6e6c79206265206163636573736564206279207468652073656c6c60008201527f65722e0000000000000000000000000000000000000000000000000000000000602082015250565b6000611da960238361153f565b9150611db482611d4d565b604082019050919050565b60006020820190508181036000830152611dd881611d9c565b9050919050565b7f43616e206e6f742064656e792073657276696365207965742e00000000000000600082015250565b6000611e1560198361153f565b9150611e2082611ddf565b602082019050919050565b60006020820190508181036000830152611e4481611e08565b9050919050565b600081905092915050565b50565b6000611e66600083611e4b565b9150611e7182611e56565b600082019050919050565b6000611e8782611e59565b9150819050919050565b7f4661696c656420746f2073656e642045746865722e0000000000000000000000600082015250565b6000611ec760158361153f565b9150611ed282611e91565b602082019050919050565b60006020820190508181036000830152611ef681611eba565b9050919050565b6000611f088261173e565b9150611f138361173e565b925082821015611f2657611f25611748565b5b828203905092915050565b7f546865207365727669636520686173206265656e2064656e6965642c2074686560008201527f206d6f6e65792072657475726e656420746f20627579657220616e642074686560208201527f20657363726f7720636f6d706c657465642e0000000000000000000000000000604082015250565b6000611fb360528361153f565b9150611fbe82611f31565b606082019050919050565b60006020820190508181036000830152611fe281611fa6565b9050919050565b7f43616e206265206163636573736564206f6e6c79206279207468652073656c6c60008201527f65722e0000000000000000000000000000000000000000000000000000000000602082015250565b600061204560238361153f565b915061205082611fe9565b604082019050919050565b6000602082019050818103600083015261207481612038565b9050919050565b7f54686520616374696f6e206973206e6f7420706f737369626c6520617420746860008201527f65206d6f6d656e742e0000000000000000000000000000000000000000000000602082015250565b60006120d760298361153f565b91506120e28261207b565b604082019050919050565b60006020820190508181036000830152612106816120ca565b9050919050565b7f54686520616374696f6e20686173206265656e20636f6d706c6574656420737560008201527f636365737366756c6c792e000000000000000000000000000000000000000000602082015250565b6000612169602b8361153f565b91506121748261210d565b604082019050919050565b600060208201905081810360008301526121988161215c565b9050919050565b7f43616e206f6e6c7920626520616363657373656420627920746865206275796560008201527f7200000000000000000000000000000000000000000000000000000000000000602082015250565b60006121fb60218361153f565b91506122068261219f565b604082019050919050565b6000602082019050818103600083015261222a816121ee565b9050919050565b7f54686520616374696f6e206973206e6f7420706f737369626c6520617420746860008201527f65206d6f6d656e74000000000000000000000000000000000000000000000000602082015250565b600061228d60288361153f565b915061229882612231565b604082019050919050565b600060208201905081810360008301526122bc81612280565b9050919050565b7f4661696c656420746f2073656e64204574686572000000000000000000000000600082015250565b60006122f960148361153f565b9150612304826122c3565b602082019050919050565b60006020820190508181036000830152612328816122ec565b9050919050565b7f54686520616374696f6e20686173206265656e20636f6d706c657465642c207460008201527f6865206d6f6e657920686173206265656e207472616e73666572656420746f2060208201527f7468652073656c6c65722e000000000000000000000000000000000000000000604082015250565b60006123b1604b8361153f565b91506123bc8261232f565b606082019050919050565b600060208201905081810360008301526123e0816123a4565b9050919050565b7f4e487b7100000000000000000000000000000000000000000000000000000000600052602260045260246000fd5b6000600282049050600182168061242e57607f821691505b60208210811415612442576124416123e7565b5b50919050565b60006124538261173e565b915061245e8361173e565b9250817fffffffffffffffffffffffffffffffffffffffffffffffffffffffffffffffff048311821515161561249757612496611748565b5b828202905092915050565b7f54686520457363726f7720686173206265656e20616464656420746f2074686560008201527f20636f6e74726163742e00000000000000000000000000000000000000000000602082015250565b60006124fe602a8361153f565b9150612509826124a2565b604082019050919050565b6000602082019050818103600083015261252d816124f1565b905091905056fea26469706673582212200fdae8fc7bde93b200ec639b2615a09de5ebac9eeeceebc598eec2e43ba232c464736f6c634300080c0033",
  "immutableReferences": {},
  "source": "// SPDX-License-Identifier: MIT\r\npragma solidity ^0.8.10;\r\n\r\ncontract Escrow\r\n{\r\n    address [] public buyers;\r\n    address [] public sellers;\r\n\r\n    uint public n_escrows;\r\n\r\n    uint public balance;           //escrow balance amount\r\n\r\n    event notify(string notification);      //notification to the sender\r\n\r\n    enum state{AWAITING_BUYER_PAYMENT,AWAITING_DELIVERY,COMPLETE}//state of the smart contract\r\n    state [] public states;\r\n\r\n    bool [] public buyerOK;\r\n    bool [] public sellerOK;\r\n\r\n\r\n    string [] public items;\r\n    uint [] public itemsprices;\r\n\r\n    constructor() {\r\n        n_escrows = 0;\r\n        balance = 0;\r\n    }\r\n\r\n    function init_escrow(address payable _seller, string memory name,uint price) public //buyer is the escrow creater\r\n    {\r\n        buyers.push(msg.sender);\r\n        sellers.push(_seller);\r\n        buyerOK.push(false);\r\n        sellerOK.push(false);\r\n        n_escrows = buyers.length;\r\n        items.push(name);\r\n        itemsprices.push(price * 1000000000000000000);\r\n        states.push(state.AWAITING_BUYER_PAYMENT);\r\n        emit notify(\"The Escrow has been added to the contract.\");\r\n    }\r\n\r\n    fallback() external payable //fallback function\r\n    {\r\n        int index = isBuyer(msg.sender);\r\n        require(index != -1,\"Can only be accessed by the buyer.\");\r\n        require(states[uint(index)]==state.AWAITING_BUYER_PAYMENT,\"Payment has already been made.\");\r\n        require(msg.value==itemsprices[uint(index)],\"Entered amount is not the required amount.\");\r\n        balance = balance + msg.value;\r\n        states[uint(index)]=state.AWAITING_DELIVERY;\r\n        emit notify(\"Buyer has deposited the required amount in the Escrow account.\");\r\n    }\r\n\r\n    function isBuyer(address _sender) public view returns (int) {\r\n        for (uint i = 0; i < buyers.length; i++)\r\n            if (buyers[uint(i)] == _sender && states[uint(i)] != state.COMPLETE)\r\n                return int(i);\r\n        return -1;\r\n    }\r\n\r\n    function isSeller(address _sender) public view returns (int) {\r\n        for (uint i = 0; i < sellers.length; i++)\r\n            if (sellers[uint(i)] == _sender && states[uint(i)] != state.COMPLETE)\r\n                return int(i);\r\n        return -1;\r\n    }\r\n\r\n    function seller_deny_service() public\r\n    {\r\n        int index = isSeller(msg.sender);\r\n        require(index!=-1,\"Can only be accessed by the seller.\");\r\n        require(states[uint(index)]==state.AWAITING_DELIVERY,\"Can not deny service yet.\");\r\n        (bool sent,) = buyers[uint(index)].call{value: itemsprices[uint(index)]}(\"\");\r\n        require(sent, \"Failed to send Ether.\");\r\n        balance = balance - itemsprices[uint(index)];\r\n        states[uint(index)]=state.COMPLETE;\r\n        emit notify(\"The service has been denied, the money returned to buyer and the escrow completed.\");\r\n    }\r\n\r\n    function seller_send_product() public\r\n    {\r\n        int index = isSeller(msg.sender);\r\n        require(index!=-1,\"Can be accessed only by the seller.\");\r\n        require(states[uint(index)]==state.AWAITING_DELIVERY,\"The action is not possible at the moment.\");\r\n        sellerOK[uint(index)]=true;\r\n        emit notify(\"The action has been completed successfully.\");\r\n    }\r\n\r\n    function b_delivery_received() public\r\n    {\r\n        int index = isBuyer(msg.sender);\r\n        require(index!=-1,\"Can only be accessed by the buyer\");\r\n        require(states[uint(index)]==state.AWAITING_DELIVERY&&sellerOK[uint(index)],\"The action is not possible at the moment\");\r\n        buyerOK[uint(index)]=true;\r\n        if(buyerOK[uint(index)]&&sellerOK[uint(index)])\r\n        {\r\n            (bool sent,) = sellers[uint(index)].call{value: itemsprices[uint(index)]}(\"\");\r\n            require(sent, \"Failed to send Ether\");\r\n            balance = balance - itemsprices[uint(index)];\r\n            states[uint(index)]=state.COMPLETE;\r\n            emit notify(\"The action has been completed, the money has been transfered to the seller.\");\r\n        }\r\n    }\r\n}",
  "sourcePath": "C:\\Users\\swisa\\Desktop\\Solidity Project\\solidity\\contracts\\Escrow.sol",
  "compiler": {
    "name": "solc",
    "version": "0.8.12+commit.f00d7308.Emscripten.clang"
  },
  "schemaVersion": "3.4.5",
  "updatedAt": "2022-03-08T11:29:19.253Z",
  "networkType": "ethereum",
  "devdoc": {
    "kind": "dev",
    "methods": {},
    "version": 1
  },
  "userdoc": {
    "kind": "user",
    "methods": {},
    "version": 1
  }
}